{
  "_format": "hh-sol-artifact-1",
  "contractName": "Auction",
  "sourceName": "contracts/Auction.sol",
  "abi": [
    {
      "inputs": [
        {
          "internalType": "address",
          "name": "_nftContract",
          "type": "address"
        },
        {
          "internalType": "uint256",
          "name": "_nftTokenId",
          "type": "uint256"
        },
        {
          "internalType": "uint256",
          "name": "_startingBid",
          "type": "uint256"
        },
        {
          "internalType": "uint256",
          "name": "_duration",
          "type": "uint256"
        }
      ],
      "stateMutability": "nonpayable",
      "type": "constructor"
    },
    {
      "anonymous": false,
      "inputs": [
        {
          "indexed": false,
          "internalType": "address",
          "name": "winner",
          "type": "address"
        },
        {
          "indexed": false,
          "internalType": "uint256",
          "name": "amount",
          "type": "uint256"
        }
      ],
      "name": "AuctionEnded",
      "type": "event"
    },
    {
      "anonymous": false,
      "inputs": [
        {
          "indexed": false,
          "internalType": "string",
          "name": "message",
          "type": "string"
        }
      ],
      "name": "AuctionError",
      "type": "event"
    },
    {
      "anonymous": false,
      "inputs": [
        {
          "indexed": false,
          "internalType": "address",
          "name": "seller",
          "type": "address"
        },
        {
          "indexed": false,
          "internalType": "uint256",
          "name": "startingBid",
          "type": "uint256"
        },
        {
          "indexed": false,
          "internalType": "uint256",
          "name": "auctionEndTime",
          "type": "uint256"
        }
      ],
      "name": "AuctionStarted",
      "type": "event"
    },
    {
      "anonymous": false,
      "inputs": [
        {
          "indexed": false,
          "internalType": "string",
          "name": "message",
          "type": "string"
        }
      ],
      "name": "Debug",
      "type": "event"
    },
    {
      "anonymous": false,
      "inputs": [
        {
          "indexed": false,
          "internalType": "address",
          "name": "bidder",
          "type": "address"
        },
        {
          "indexed": false,
          "internalType": "uint256",
          "name": "amount",
          "type": "uint256"
        }
      ],
      "name": "NewBid",
      "type": "event"
    },
    {
      "inputs": [],
      "name": "auctionEndTime",
      "outputs": [
        {
          "internalType": "uint256",
          "name": "",
          "type": "uint256"
        }
      ],
      "stateMutability": "view",
      "type": "function"
    },
    {
      "inputs": [],
      "name": "auctionEnded",
      "outputs": [
        {
          "internalType": "bool",
          "name": "",
          "type": "bool"
        }
      ],
      "stateMutability": "view",
      "type": "function"
    },
    {
      "inputs": [],
      "name": "auctionStarted",
      "outputs": [
        {
          "internalType": "bool",
          "name": "",
          "type": "bool"
        }
      ],
      "stateMutability": "view",
      "type": "function"
    },
    {
      "inputs": [],
      "name": "endAuction",
      "outputs": [],
      "stateMutability": "nonpayable",
      "type": "function"
    },
    {
      "inputs": [],
      "name": "highestBid",
      "outputs": [
        {
          "internalType": "uint256",
          "name": "",
          "type": "uint256"
        }
      ],
      "stateMutability": "view",
      "type": "function"
    },
    {
      "inputs": [],
      "name": "highestBidder",
      "outputs": [
        {
          "internalType": "address",
          "name": "",
          "type": "address"
        }
      ],
      "stateMutability": "view",
      "type": "function"
    },
    {
      "inputs": [],
      "name": "nftContract",
      "outputs": [
        {
          "internalType": "address",
          "name": "",
          "type": "address"
        }
      ],
      "stateMutability": "view",
      "type": "function"
    },
    {
      "inputs": [],
      "name": "nftTokenId",
      "outputs": [
        {
          "internalType": "uint256",
          "name": "",
          "type": "uint256"
        }
      ],
      "stateMutability": "view",
      "type": "function"
    },
    {
      "inputs": [],
      "name": "placeBid",
      "outputs": [],
      "stateMutability": "payable",
      "type": "function"
    },
    {
      "inputs": [],
      "name": "seller",
      "outputs": [
        {
          "internalType": "address",
          "name": "",
          "type": "address"
        }
      ],
      "stateMutability": "view",
      "type": "function"
    },
    {
      "inputs": [
        {
          "internalType": "uint256",
          "name": "startingBid",
          "type": "uint256"
        },
        {
          "internalType": "uint256",
          "name": "duration",
          "type": "uint256"
        }
      ],
      "name": "startAuction",
      "outputs": [],
      "stateMutability": "nonpayable",
      "type": "function"
    }
  ],
  "bytecode": "0x60806040523480156200001157600080fd5b50604051620018d5380380620018d5833981810160405281019062000037919062000148565b836000806101000a81548173ffffffffffffffffffffffffffffffffffffffff021916908373ffffffffffffffffffffffffffffffffffffffff1602179055508260018190555033600260006101000a81548173ffffffffffffffffffffffffffffffffffffffff021916908373ffffffffffffffffffffffffffffffffffffffff160217905550816003819055508042620000d49190620001b4565b6005819055506000600660006101000a81548160ff0219169083151502179055506000600660016101000a81548160ff02191690831515021790555050505050620002b2565b6000815190506200012b816200027e565b92915050565b600081519050620001428162000298565b92915050565b600080600080608085870312156200015f57600080fd5b60006200016f878288016200011a565b9450506020620001828782880162000131565b9350506040620001958782880162000131565b9250506060620001a88782880162000131565b91505092959194509250565b6000620001c18262000245565b9150620001ce8362000245565b9250827fffffffffffffffffffffffffffffffffffffffffffffffffffffffffffffffff038211156200020657620002056200024f565b5b828201905092915050565b60006200021e8262000225565b9050919050565b600073ffffffffffffffffffffffffffffffffffffffff82169050919050565b6000819050919050565b7f4e487b7100000000000000000000000000000000000000000000000000000000600052601160045260246000fd5b620002898162000211565b81146200029557600080fd5b50565b620002a38162000245565b8114620002af57600080fd5b50565b61161380620002c26000396000f3fe60806040526004361061009c5760003560e01c806391f901571161006457806391f9015714610176578063d56d229d146101a1578063d57bde79146101cc578063ecfc7ecc146101f7578063ee2679bc14610201578063fe67a54b1461022c5761009c565b806308551a53146100a15780634b449cba146100cc5780634fee13fc146100f75780637e83057414610120578063864333741461014b575b600080fd5b3480156100ad57600080fd5b506100b6610243565b6040516100c39190610e8c565b60405180910390f35b3480156100d857600080fd5b506100e1610269565b6040516100ee9190611159565b60405180910390f35b34801561010357600080fd5b5061011e60048036038101906101199190610bf3565b61026f565b005b34801561012c57600080fd5b5061013561041b565b6040516101429190611159565b60405180910390f35b34801561015757600080fd5b50610160610421565b60405161016d9190610f3e565b60405180910390f35b34801561018257600080fd5b5061018b610434565b6040516101989190610e8c565b60405180910390f35b3480156101ad57600080fd5b506101b661045a565b6040516101c39190610e8c565b60405180910390f35b3480156101d857600080fd5b506101e161047e565b6040516101ee9190611159565b60405180910390f35b6101ff610484565b005b34801561020d57600080fd5b5061021661063a565b6040516102239190610f3e565b60405180910390f35b34801561023857600080fd5b5061024161064d565b005b600260009054906101000a900473ffffffffffffffffffffffffffffffffffffffff1681565b60055481565b600260009054906101000a900473ffffffffffffffffffffffffffffffffffffffff1673ffffffffffffffffffffffffffffffffffffffff163373ffffffffffffffffffffffffffffffffffffffff16146102ff576040517f08c379a00000000000000000000000000000000000000000000000000000000081526004016102f690611139565b60405180910390fd5b600660019054906101000a900460ff161561034f576040517f08c379a0000000000000000000000000000000000000000000000000000000008152600401610346906110d9565b60405180910390fd5b6001600660016101000a81548160ff02191690831515021790555080426103769190611185565b600581905550816003819055507f92db7303de5c78e58e4570f0b4acf392e3dac09394e96c4fa62b323b6337ee65600260009054906101000a900473ffffffffffffffffffffffffffffffffffffffff16836005546040516103da93929190610f07565b60405180910390a17f7cdb51e9dbbc205231228146c3246e7f914aa6d4a33170e43ecc8e3593481d1a60405161040f90610f99565b60405180910390a15050565b60015481565b600660009054906101000a900460ff1681565b600460009054906101000a900473ffffffffffffffffffffffffffffffffffffffff1681565b60008054906101000a900473ffffffffffffffffffffffffffffffffffffffff1681565b60035481565b60055442106104c8576040517f08c379a00000000000000000000000000000000000000000000000000000000081526004016104bf90611039565b60405180910390fd5b600354341161050c576040517f08c379a0000000000000000000000000000000000000000000000000000000008152600401610503906110f9565b60405180910390fd5b60006003541461058257600460009054906101000a900473ffffffffffffffffffffffffffffffffffffffff1673ffffffffffffffffffffffffffffffffffffffff166108fc6003549081150290604051600060405180830381858888f19350505050158015610580573d6000803e3d6000fd5b505b3460038190555033600460006101000a81548173ffffffffffffffffffffffffffffffffffffffff021916908373ffffffffffffffffffffffffffffffffffffffff1602179055507fdd0b6c6a77960e2066c96171b4d7ac9e8b4c184011f38544afa36a5bb63ec59f33346040516105fb929190610ede565b60405180910390a17f7cdb51e9dbbc205231228146c3246e7f914aa6d4a33170e43ecc8e3593481d1a60405161063090611119565b60405180910390a1565b600660019054906101000a900460ff1681565b600260009054906101000a900473ffffffffffffffffffffffffffffffffffffffff1673ffffffffffffffffffffffffffffffffffffffff163373ffffffffffffffffffffffffffffffffffffffff16146106dd576040517f08c379a00000000000000000000000000000000000000000000000000000000081526004016106d490611139565b60405180910390fd5b600554421015610722576040517f08c379a000000000000000000000000000000000000000000000000000000000815260040161071990610ff9565b60405180910390fd5b600660009054906101000a900460ff1615610772576040517f08c379a000000000000000000000000000000000000000000000000000000000815260040161076990610fb9565b60405180910390fd5b6001600660006101000a81548160ff0219169083151502179055506000600660016101000a81548160ff021916908315150217905550600073ffffffffffffffffffffffffffffffffffffffff16600460009054906101000a900473ffffffffffffffffffffffffffffffffffffffff1673ffffffffffffffffffffffffffffffffffffffff1614610a825760008054906101000a900473ffffffffffffffffffffffffffffffffffffffff1673ffffffffffffffffffffffffffffffffffffffff166342842e0e600260009054906101000a900473ffffffffffffffffffffffffffffffffffffffff16600460009054906101000a900473ffffffffffffffffffffffffffffffffffffffff166001546040518463ffffffff1660e01b81526004016108a193929190610ea7565b600060405180830381600087803b1580156108bb57600080fd5b505af19250505080156108cc575060015b610940577f398aff2ff1d0e56a7c7297e81c8e100ce53fd079b700b5334af3df9ec01c5b836040516108fd90611059565b60405180910390a16040517f08c379a000000000000000000000000000000000000000000000000000000000815260040161093790610f59565b60405180910390fd5b7f7cdb51e9dbbc205231228146c3246e7f914aa6d4a33170e43ecc8e3593481d1a60405161096d90611019565b60405180910390a16000600260009054906101000a900473ffffffffffffffffffffffffffffffffffffffff1673ffffffffffffffffffffffffffffffffffffffff166108fc6003549081150290604051600060405180830381858888f19350505050905080610a47577f398aff2ff1d0e56a7c7297e81c8e100ce53fd079b700b5334af3df9ec01c5b83604051610a0490611099565b60405180910390a16040517f08c379a0000000000000000000000000000000000000000000000000000000008152600401610a3e906110b9565b60405180910390fd5b7f7cdb51e9dbbc205231228146c3246e7f914aa6d4a33170e43ecc8e3593481d1a604051610a7490611079565b60405180910390a150610ab8565b7f7cdb51e9dbbc205231228146c3246e7f914aa6d4a33170e43ecc8e3593481d1a604051610aaf90610fd9565b60405180910390a15b7fdaec4582d5d9595688c8c98545fdd1c696d41c6aeaeb636737e84ed2f5c00eda600460009054906101000a900473ffffffffffffffffffffffffffffffffffffffff16600354604051610b0d929190610ede565b60405180910390a1610b1d610b1f565b565b6000600660016101000a81548160ff0219169083151502179055506000600660006101000a81548160ff02191690831515021790555060006003819055506000600460006101000a81548173ffffffffffffffffffffffffffffffffffffffff021916908373ffffffffffffffffffffffffffffffffffffffff16021790555060006005819055507f7cdb51e9dbbc205231228146c3246e7f914aa6d4a33170e43ecc8e3593481d1a604051610bd490610f79565b60405180910390a1565b600081359050610bed816115c6565b92915050565b60008060408385031215610c0657600080fd5b6000610c1485828601610bde565b9250506020610c2585828601610bde565b9150509250929050565b610c38816111db565b82525050565b610c47816111ed565b82525050565b6000610c5a601a83611174565b9150610c6582611252565b602082019050919050565b6000610c7d600d83611174565b9150610c888261127b565b602082019050919050565b6000610ca0601c83611174565b9150610cab826112a4565b602082019050919050565b6000610cc3601583611174565b9150610cce826112cd565b602082019050919050565b6000610ce6604183611174565b9150610cf1826112f6565b606082019050919050565b6000610d09601883611174565b9150610d148261136b565b602082019050919050565b6000610d2c601783611174565b9150610d3782611394565b602082019050919050565b6000610d4f601183611174565b9150610d5a826113bd565b602082019050919050565b6000610d72603083611174565b9150610d7d826113e6565b604082019050919050565b6000610d95601b83611174565b9150610da082611435565b602082019050919050565b6000610db8603083611174565b9150610dc38261145e565b604082019050919050565b6000610ddb602283611174565b9150610de6826114ad565b604082019050919050565b6000610dfe601783611174565b9150610e09826114fc565b602082019050919050565b6000610e21602f83611174565b9150610e2c82611525565b604082019050919050565b6000610e44601783611174565b9150610e4f82611574565b602082019050919050565b6000610e67601983611174565b9150610e728261159d565b602082019050919050565b610e8681611219565b82525050565b6000602082019050610ea16000830184610c2f565b92915050565b6000606082019050610ebc6000830186610c2f565b610ec96020830185610c2f565b610ed66040830184610e7d565b949350505050565b6000604082019050610ef36000830185610c2f565b610f006020830184610e7d565b9392505050565b6000606082019050610f1c6000830186610c2f565b610f296020830185610e7d565b610f366040830184610e7d565b949350505050565b6000602082019050610f536000830184610c3e565b92915050565b60006020820190508181036000830152610f7281610c4d565b9050919050565b60006020820190508181036000830152610f9281610c70565b9050919050565b60006020820190508181036000830152610fb281610c93565b9050919050565b60006020820190508181036000830152610fd281610cb6565b9050919050565b60006020820190508181036000830152610ff281610cd9565b9050919050565b6000602082019050818103600083015261101281610cfc565b9050919050565b6000602082019050818103600083015261103281610d1f565b9050919050565b6000602082019050818103600083015261105281610d42565b9050919050565b6000602082019050818103600083015261107281610d65565b9050919050565b6000602082019050818103600083015261109281610d88565b9050919050565b600060208201905081810360008301526110b281610dab565b9050919050565b600060208201905081810360008301526110d281610dce565b9050919050565b600060208201905081810360008301526110f281610df1565b9050919050565b6000602082019050818103600083015261111281610e14565b9050919050565b6000602082019050818103600083015261113281610e37565b9050919050565b6000602082019050818103600083015261115281610e5a565b9050919050565b600060208201905061116e6000830184610e7d565b92915050565b600082825260208201905092915050565b600061119082611219565b915061119b83611219565b9250827fffffffffffffffffffffffffffffffffffffffffffffffffffffffffffffffff038211156111d0576111cf611223565b5b828201905092915050565b60006111e6826111f9565b9050919050565b60008115159050919050565b600073ffffffffffffffffffffffffffffffffffffffff82169050919050565b6000819050919050565b7f4e487b7100000000000000000000000000000000000000000000000000000000600052601160045260246000fd5b7f4661696c656420746f207472616e7366657220746865204e4654000000000000600082015250565b7f41756374696f6e20726573657400000000000000000000000000000000000000600082015250565b7f41756374696f6e2073746172746564207375636365737366756c6c7900000000600082015250565b7f41756374696f6e20616c726561647920656e6465640000000000000000000000600082015250565b7f4e6f206269647320706c616365642c2061756374696f6e20656e64656420776960008201527f74686f7574207472616e7366657272696e67204e4654206f72207061796d656e60208201527f7400000000000000000000000000000000000000000000000000000000000000604082015250565b7f41756374696f6e206973207374696c6c206f6e676f696e670000000000000000600082015250565b7f4e4654207472616e73666572207375636365737366756c000000000000000000600082015250565b7f41756374696f6e2068617320656e646564000000000000000000000000000000600082015250565b7f4661696c656420746f207472616e7366657220746865204e465420746f20746860008201527f6520686967686573742062696464657200000000000000000000000000000000602082015250565b7f5061796d656e74207472616e73666572207375636365737366756c0000000000600082015250565b7f4661696c656420746f207472616e73666572207468652068696768657374206260008201527f696420746f207468652073656c6c657200000000000000000000000000000000602082015250565b7f4661696c656420746f207472616e73666572207468652068696768657374206260008201527f6964000000000000000000000000000000000000000000000000000000000000602082015250565b7f41756374696f6e20616c72656164792073746172746564000000000000000000600082015250565b7f426964206d75737420626520686967686572207468616e20746865206375727260008201527f656e742068696768657374206269640000000000000000000000000000000000602082015250565b7f42696420706c61636564207375636365737366756c6c79000000000000000000600082015250565b7f4f6e6c792073656c6c65722063616e2063616c6c207468697300000000000000600082015250565b6115cf81611219565b81146115da57600080fd5b5056fea264697066735822122066955b320011a8a20389f31ef0f39ffe96e22851b22d4f3b0934d5cdd235dd1f64736f6c63430008040033",
  "linkReferences": {},
  "deployedLinkReferences": {}
}