{
  "_format": "hh-sol-artifact-1",
  "contractName": "Auction",
  "sourceName": "contracts/Auction.sol",
  "abi": [
    {
      "inputs": [
        {
          "internalType": "address",
          "name": "_nftContract",
          "type": "address"
        },
        {
          "internalType": "uint256",
          "name": "_nftTokenId",
          "type": "uint256"
        },
        {
          "internalType": "uint256",
          "name": "_startingBid",
          "type": "uint256"
        },
        {
          "internalType": "uint256",
          "name": "_duration",
          "type": "uint256"
        }
      ],
      "stateMutability": "nonpayable",
      "type": "constructor"
    },
    {
      "anonymous": false,
      "inputs": [
        {
          "indexed": false,
          "internalType": "address",
          "name": "winner",
          "type": "address"
        },
        {
          "indexed": false,
          "internalType": "uint256",
          "name": "amount",
          "type": "uint256"
        }
      ],
      "name": "AuctionEnded",
      "type": "event"
    },
    {
      "anonymous": false,
      "inputs": [
        {
          "indexed": false,
          "internalType": "string",
          "name": "message",
          "type": "string"
        }
      ],
      "name": "AuctionError",
      "type": "event"
    },
    {
      "anonymous": false,
      "inputs": [
        {
          "indexed": false,
          "internalType": "address",
          "name": "seller",
          "type": "address"
        },
        {
          "indexed": false,
          "internalType": "uint256",
          "name": "startingBid",
          "type": "uint256"
        },
        {
          "indexed": false,
          "internalType": "uint256",
          "name": "auctionEndTime",
          "type": "uint256"
        }
      ],
      "name": "AuctionStarted",
      "type": "event"
    },
    {
      "anonymous": false,
      "inputs": [
        {
          "indexed": false,
          "internalType": "string",
          "name": "message",
          "type": "string"
        }
      ],
      "name": "Debug",
      "type": "event"
    },
    {
      "anonymous": false,
      "inputs": [
        {
          "indexed": false,
          "internalType": "address",
          "name": "bidder",
          "type": "address"
        },
        {
          "indexed": false,
          "internalType": "uint256",
          "name": "amount",
          "type": "uint256"
        }
      ],
      "name": "NewBid",
      "type": "event"
    },
    {
      "inputs": [],
      "name": "auctionEndTime",
      "outputs": [
        {
          "internalType": "uint256",
          "name": "",
          "type": "uint256"
        }
      ],
      "stateMutability": "view",
      "type": "function"
    },
    {
      "inputs": [],
      "name": "auctionEnded",
      "outputs": [
        {
          "internalType": "bool",
          "name": "",
          "type": "bool"
        }
      ],
      "stateMutability": "view",
      "type": "function"
    },
    {
      "inputs": [],
      "name": "auctionStarted",
      "outputs": [
        {
          "internalType": "bool",
          "name": "",
          "type": "bool"
        }
      ],
      "stateMutability": "view",
      "type": "function"
    },
    {
      "inputs": [],
      "name": "endAuction",
      "outputs": [],
      "stateMutability": "nonpayable",
      "type": "function"
    },
    {
      "inputs": [],
      "name": "highestBid",
      "outputs": [
        {
          "internalType": "uint256",
          "name": "",
          "type": "uint256"
        }
      ],
      "stateMutability": "view",
      "type": "function"
    },
    {
      "inputs": [],
      "name": "highestBidder",
      "outputs": [
        {
          "internalType": "address",
          "name": "",
          "type": "address"
        }
      ],
      "stateMutability": "view",
      "type": "function"
    },
    {
      "inputs": [],
      "name": "nftContract",
      "outputs": [
        {
          "internalType": "address",
          "name": "",
          "type": "address"
        }
      ],
      "stateMutability": "view",
      "type": "function"
    },
    {
      "inputs": [],
      "name": "nftTokenId",
      "outputs": [
        {
          "internalType": "uint256",
          "name": "",
          "type": "uint256"
        }
      ],
      "stateMutability": "view",
      "type": "function"
    },
    {
      "inputs": [],
      "name": "placeBid",
      "outputs": [],
      "stateMutability": "payable",
      "type": "function"
    },
    {
      "inputs": [],
      "name": "resetAuction",
      "outputs": [],
      "stateMutability": "nonpayable",
      "type": "function"
    },
    {
      "inputs": [],
      "name": "seller",
      "outputs": [
        {
          "internalType": "address",
          "name": "",
          "type": "address"
        }
      ],
      "stateMutability": "view",
      "type": "function"
    },
    {
      "inputs": [
        {
          "internalType": "uint256",
          "name": "startingBid",
          "type": "uint256"
        },
        {
          "internalType": "uint256",
          "name": "duration",
          "type": "uint256"
        }
      ],
      "name": "startAuction",
      "outputs": [],
      "stateMutability": "nonpayable",
      "type": "function"
    }
  ],
  "bytecode": "0x60806040523480156200001157600080fd5b50604051620016fa380380620016fa833981810160405281019062000037919062000148565b836000806101000a81548173ffffffffffffffffffffffffffffffffffffffff021916908373ffffffffffffffffffffffffffffffffffffffff1602179055508260018190555033600260006101000a81548173ffffffffffffffffffffffffffffffffffffffff021916908373ffffffffffffffffffffffffffffffffffffffff160217905550816003819055508042620000d49190620001b4565b6005819055506000600660006101000a81548160ff0219169083151502179055506000600660016101000a81548160ff02191690831515021790555050505050620002b2565b6000815190506200012b816200027e565b92915050565b600081519050620001428162000298565b92915050565b600080600080608085870312156200015f57600080fd5b60006200016f878288016200011a565b9450506020620001828782880162000131565b9350506040620001958782880162000131565b9250506060620001a88782880162000131565b91505092959194509250565b6000620001c18262000245565b9150620001ce8362000245565b9250827fffffffffffffffffffffffffffffffffffffffffffffffffffffffffffffffff038211156200020657620002056200024f565b5b828201905092915050565b60006200021e8262000225565b9050919050565b600073ffffffffffffffffffffffffffffffffffffffff82169050919050565b6000819050919050565b7f4e487b7100000000000000000000000000000000000000000000000000000000600052601160045260246000fd5b620002898162000211565b81146200029557600080fd5b50565b620002a38162000245565b8114620002af57600080fd5b50565b61143880620002c26000396000f3fe6080604052600436106100a75760003560e01c806391f901571161006457806391f9015714610198578063d56d229d146101c3578063d57bde79146101ee578063ecfc7ecc14610219578063ee2679bc14610223578063fe67a54b1461024e576100a7565b806308551a53146100ac5780634b449cba146100d75780634fee13fc146101025780637d3504531461012b5780637e83057414610142578063864333741461016d575b600080fd5b3480156100b857600080fd5b506100c1610265565b6040516100ce9190610d43565b60405180910390f35b3480156100e357600080fd5b506100ec61028b565b6040516100f99190610fd0565b60405180910390f35b34801561010e57600080fd5b5061012960048036038101906101249190610af0565b610291565b005b34801561013757600080fd5b5061014061043d565b005b34801561014e57600080fd5b506101576104fc565b6040516101649190610fd0565b60405180910390f35b34801561017957600080fd5b50610182610502565b60405161018f9190610df5565b60405180910390f35b3480156101a457600080fd5b506101ad610515565b6040516101ba9190610d43565b60405180910390f35b3480156101cf57600080fd5b506101d861053b565b6040516101e59190610d43565b60405180910390f35b3480156101fa57600080fd5b5061020361055f565b6040516102109190610fd0565b60405180910390f35b610221610565565b005b34801561022f57600080fd5b5061023861071b565b6040516102459190610df5565b60405180910390f35b34801561025a57600080fd5b5061026361072e565b005b600260009054906101000a900473ffffffffffffffffffffffffffffffffffffffff1681565b60055481565b600260009054906101000a900473ffffffffffffffffffffffffffffffffffffffff1673ffffffffffffffffffffffffffffffffffffffff163373ffffffffffffffffffffffffffffffffffffffff1614610321576040517f08c379a000000000000000000000000000000000000000000000000000000000815260040161031890610fb0565b60405180910390fd5b600660019054906101000a900460ff1615610371576040517f08c379a000000000000000000000000000000000000000000000000000000000815260040161036890610f50565b60405180910390fd5b6001600660016101000a81548160ff02191690831515021790555080426103989190610ffc565b600581905550816003819055507f92db7303de5c78e58e4570f0b4acf392e3dac09394e96c4fa62b323b6337ee65600260009054906101000a900473ffffffffffffffffffffffffffffffffffffffff16836005546040516103fc93929190610dbe565b60405180910390a17f7cdb51e9dbbc205231228146c3246e7f914aa6d4a33170e43ecc8e3593481d1a60405161043190610e50565b60405180910390a15050565b6000600660016101000a81548160ff0219169083151502179055506000600660006101000a81548160ff02191690831515021790555060006003819055506000600460006101000a81548173ffffffffffffffffffffffffffffffffffffffff021916908373ffffffffffffffffffffffffffffffffffffffff16021790555060006005819055507f7cdb51e9dbbc205231228146c3246e7f914aa6d4a33170e43ecc8e3593481d1a6040516104f290610e30565b60405180910390a1565b60015481565b600660009054906101000a900460ff1681565b600460009054906101000a900473ffffffffffffffffffffffffffffffffffffffff1681565b60008054906101000a900473ffffffffffffffffffffffffffffffffffffffff1681565b60035481565b60055442106105a9576040517f08c379a00000000000000000000000000000000000000000000000000000000081526004016105a090610eb0565b60405180910390fd5b60035434116105ed576040517f08c379a00000000000000000000000000000000000000000000000000000000081526004016105e490610f70565b60405180910390fd5b60006003541461066357600460009054906101000a900473ffffffffffffffffffffffffffffffffffffffff1673ffffffffffffffffffffffffffffffffffffffff166108fc6003549081150290604051600060405180830381858888f19350505050158015610661573d6000803e3d6000fd5b505b3460038190555033600460006101000a81548173ffffffffffffffffffffffffffffffffffffffff021916908373ffffffffffffffffffffffffffffffffffffffff1602179055507fdd0b6c6a77960e2066c96171b4d7ac9e8b4c184011f38544afa36a5bb63ec59f33346040516106dc929190610d95565b60405180910390a17f7cdb51e9dbbc205231228146c3246e7f914aa6d4a33170e43ecc8e3593481d1a60405161071190610f90565b60405180910390a1565b600660019054906101000a900460ff1681565b6001600660006101000a81548160ff0219169083151502179055506000600660016101000a81548160ff021916908315150217905550600073ffffffffffffffffffffffffffffffffffffffff16600460009054906101000a900473ffffffffffffffffffffffffffffffffffffffff1673ffffffffffffffffffffffffffffffffffffffff1614610a3e5760008054906101000a900473ffffffffffffffffffffffffffffffffffffffff1673ffffffffffffffffffffffffffffffffffffffff166342842e0e600260009054906101000a900473ffffffffffffffffffffffffffffffffffffffff16600460009054906101000a900473ffffffffffffffffffffffffffffffffffffffff166001546040518463ffffffff1660e01b815260040161085d93929190610d5e565b600060405180830381600087803b15801561087757600080fd5b505af1925050508015610888575060015b6108fc577f398aff2ff1d0e56a7c7297e81c8e100ce53fd079b700b5334af3df9ec01c5b836040516108b990610ed0565b60405180910390a16040517f08c379a00000000000000000000000000000000000000000000000000000000081526004016108f390610e10565b60405180910390fd5b7f7cdb51e9dbbc205231228146c3246e7f914aa6d4a33170e43ecc8e3593481d1a60405161092990610e90565b60405180910390a16000600260009054906101000a900473ffffffffffffffffffffffffffffffffffffffff1673ffffffffffffffffffffffffffffffffffffffff166108fc6003549081150290604051600060405180830381858888f19350505050905080610a03577f398aff2ff1d0e56a7c7297e81c8e100ce53fd079b700b5334af3df9ec01c5b836040516109c090610f10565b60405180910390a16040517f08c379a00000000000000000000000000000000000000000000000000000000081526004016109fa90610f30565b60405180910390fd5b7f7cdb51e9dbbc205231228146c3246e7f914aa6d4a33170e43ecc8e3593481d1a604051610a3090610ef0565b60405180910390a150610a74565b7f7cdb51e9dbbc205231228146c3246e7f914aa6d4a33170e43ecc8e3593481d1a604051610a6b90610e70565b60405180910390a15b7fdaec4582d5d9595688c8c98545fdd1c696d41c6aeaeb636737e84ed2f5c00eda600460009054906101000a900473ffffffffffffffffffffffffffffffffffffffff16600354604051610ac9929190610d95565b60405180910390a1610ad961043d565b565b600081359050610aea816113eb565b92915050565b60008060408385031215610b0357600080fd5b6000610b1185828601610adb565b9250506020610b2285828601610adb565b9150509250929050565b610b3581611052565b82525050565b610b4481611064565b82525050565b6000610b57601a83610feb565b9150610b62826110c9565b602082019050919050565b6000610b7a600d83610feb565b9150610b85826110f2565b602082019050919050565b6000610b9d601c83610feb565b9150610ba88261111b565b602082019050919050565b6000610bc0604183610feb565b9150610bcb82611144565b606082019050919050565b6000610be3601783610feb565b9150610bee826111b9565b602082019050919050565b6000610c06601183610feb565b9150610c11826111e2565b602082019050919050565b6000610c29603083610feb565b9150610c348261120b565b604082019050919050565b6000610c4c601b83610feb565b9150610c578261125a565b602082019050919050565b6000610c6f603083610feb565b9150610c7a82611283565b604082019050919050565b6000610c92602283610feb565b9150610c9d826112d2565b604082019050919050565b6000610cb5601783610feb565b9150610cc082611321565b602082019050919050565b6000610cd8602f83610feb565b9150610ce38261134a565b604082019050919050565b6000610cfb601783610feb565b9150610d0682611399565b602082019050919050565b6000610d1e601983610feb565b9150610d29826113c2565b602082019050919050565b610d3d81611090565b82525050565b6000602082019050610d586000830184610b2c565b92915050565b6000606082019050610d736000830186610b2c565b610d806020830185610b2c565b610d8d6040830184610d34565b949350505050565b6000604082019050610daa6000830185610b2c565b610db76020830184610d34565b9392505050565b6000606082019050610dd36000830186610b2c565b610de06020830185610d34565b610ded6040830184610d34565b949350505050565b6000602082019050610e0a6000830184610b3b565b92915050565b60006020820190508181036000830152610e2981610b4a565b9050919050565b60006020820190508181036000830152610e4981610b6d565b9050919050565b60006020820190508181036000830152610e6981610b90565b9050919050565b60006020820190508181036000830152610e8981610bb3565b9050919050565b60006020820190508181036000830152610ea981610bd6565b9050919050565b60006020820190508181036000830152610ec981610bf9565b9050919050565b60006020820190508181036000830152610ee981610c1c565b9050919050565b60006020820190508181036000830152610f0981610c3f565b9050919050565b60006020820190508181036000830152610f2981610c62565b9050919050565b60006020820190508181036000830152610f4981610c85565b9050919050565b60006020820190508181036000830152610f6981610ca8565b9050919050565b60006020820190508181036000830152610f8981610ccb565b9050919050565b60006020820190508181036000830152610fa981610cee565b9050919050565b60006020820190508181036000830152610fc981610d11565b9050919050565b6000602082019050610fe56000830184610d34565b92915050565b600082825260208201905092915050565b600061100782611090565b915061101283611090565b9250827fffffffffffffffffffffffffffffffffffffffffffffffffffffffffffffffff038211156110475761104661109a565b5b828201905092915050565b600061105d82611070565b9050919050565b60008115159050919050565b600073ffffffffffffffffffffffffffffffffffffffff82169050919050565b6000819050919050565b7f4e487b7100000000000000000000000000000000000000000000000000000000600052601160045260246000fd5b7f4661696c656420746f207472616e7366657220746865204e4654000000000000600082015250565b7f41756374696f6e20726573657400000000000000000000000000000000000000600082015250565b7f41756374696f6e2073746172746564207375636365737366756c6c7900000000600082015250565b7f4e6f206269647320706c616365642c2061756374696f6e20656e64656420776960008201527f74686f7574207472616e7366657272696e67204e4654206f72207061796d656e60208201527f7400000000000000000000000000000000000000000000000000000000000000604082015250565b7f4e4654207472616e73666572207375636365737366756c000000000000000000600082015250565b7f41756374696f6e2068617320656e646564000000000000000000000000000000600082015250565b7f4661696c656420746f207472616e7366657220746865204e465420746f20746860008201527f6520686967686573742062696464657200000000000000000000000000000000602082015250565b7f5061796d656e74207472616e73666572207375636365737366756c0000000000600082015250565b7f4661696c656420746f207472616e73666572207468652068696768657374206260008201527f696420746f207468652073656c6c657200000000000000000000000000000000602082015250565b7f4661696c656420746f207472616e73666572207468652068696768657374206260008201527f6964000000000000000000000000000000000000000000000000000000000000602082015250565b7f41756374696f6e20616c72656164792073746172746564000000000000000000600082015250565b7f426964206d75737420626520686967686572207468616e20746865206375727260008201527f656e742068696768657374206269640000000000000000000000000000000000602082015250565b7f42696420706c61636564207375636365737366756c6c79000000000000000000600082015250565b7f4f6e6c792073656c6c65722063616e2063616c6c207468697300000000000000600082015250565b6113f481611090565b81146113ff57600080fd5b5056fea26469706673582212202dc88fc3a057f9f10919be117f4f2699ed9147f43ea7fa987f6db0400f69ae9c64736f6c63430008040033",
  "linkReferences": {},
  "deployedLinkReferences": {}
}