{
  "_format": "hh-sol-artifact-1",
  "contractName": "Auction",
  "sourceName": "contracts/Auction.sol",
  "abi": [
    {
      "inputs": [
        {
          "internalType": "address",
          "name": "_nftContract",
          "type": "address"
        }
      ],
      "stateMutability": "nonpayable",
      "type": "constructor"
    },
    {
      "anonymous": false,
      "inputs": [
        {
          "indexed": false,
          "internalType": "address",
          "name": "winner",
          "type": "address"
        },
        {
          "indexed": false,
          "internalType": "uint256",
          "name": "amount",
          "type": "uint256"
        }
      ],
      "name": "AuctionEnded",
      "type": "event"
    },
    {
      "anonymous": false,
      "inputs": [
        {
          "indexed": false,
          "internalType": "address",
          "name": "seller",
          "type": "address"
        },
        {
          "indexed": false,
          "internalType": "uint256",
          "name": "startingBid",
          "type": "uint256"
        },
        {
          "indexed": false,
          "internalType": "uint256",
          "name": "auctionEndTime",
          "type": "uint256"
        }
      ],
      "name": "AuctionStarted",
      "type": "event"
    },
    {
      "anonymous": false,
      "inputs": [
        {
          "indexed": false,
          "internalType": "string",
          "name": "message",
          "type": "string"
        }
      ],
      "name": "Debug",
      "type": "event"
    },
    {
      "anonymous": false,
      "inputs": [
        {
          "indexed": false,
          "internalType": "address",
          "name": "bidder",
          "type": "address"
        },
        {
          "indexed": false,
          "internalType": "uint256",
          "name": "amount",
          "type": "uint256"
        }
      ],
      "name": "NewBid",
      "type": "event"
    },
    {
      "inputs": [],
      "name": "auctionEndTime",
      "outputs": [
        {
          "internalType": "uint256",
          "name": "",
          "type": "uint256"
        }
      ],
      "stateMutability": "view",
      "type": "function"
    },
    {
      "inputs": [],
      "name": "auctionEnded",
      "outputs": [
        {
          "internalType": "bool",
          "name": "",
          "type": "bool"
        }
      ],
      "stateMutability": "view",
      "type": "function"
    },
    {
      "inputs": [],
      "name": "auctionStarted",
      "outputs": [
        {
          "internalType": "bool",
          "name": "",
          "type": "bool"
        }
      ],
      "stateMutability": "view",
      "type": "function"
    },
    {
      "inputs": [],
      "name": "endAuction",
      "outputs": [],
      "stateMutability": "nonpayable",
      "type": "function"
    },
    {
      "inputs": [],
      "name": "highestBid",
      "outputs": [
        {
          "internalType": "uint256",
          "name": "",
          "type": "uint256"
        }
      ],
      "stateMutability": "view",
      "type": "function"
    },
    {
      "inputs": [],
      "name": "highestBidder",
      "outputs": [
        {
          "internalType": "address",
          "name": "",
          "type": "address"
        }
      ],
      "stateMutability": "view",
      "type": "function"
    },
    {
      "inputs": [],
      "name": "nftContract",
      "outputs": [
        {
          "internalType": "address",
          "name": "",
          "type": "address"
        }
      ],
      "stateMutability": "view",
      "type": "function"
    },
    {
      "inputs": [],
      "name": "nftTokenId",
      "outputs": [
        {
          "internalType": "uint256",
          "name": "",
          "type": "uint256"
        }
      ],
      "stateMutability": "view",
      "type": "function"
    },
    {
      "inputs": [],
      "name": "placeBid",
      "outputs": [],
      "stateMutability": "payable",
      "type": "function"
    },
    {
      "inputs": [],
      "name": "resetAuction",
      "outputs": [],
      "stateMutability": "nonpayable",
      "type": "function"
    },
    {
      "inputs": [
        {
          "internalType": "address",
          "name": "_to",
          "type": "address"
        },
        {
          "internalType": "uint256",
          "name": "_tokenId",
          "type": "uint256"
        }
      ],
      "name": "safeTransferNFT",
      "outputs": [],
      "stateMutability": "nonpayable",
      "type": "function"
    },
    {
      "inputs": [
        {
          "internalType": "uint256",
          "name": "_startingBid",
          "type": "uint256"
        },
        {
          "internalType": "uint256",
          "name": "duration",
          "type": "uint256"
        },
        {
          "internalType": "uint256",
          "name": "_nftTokenId",
          "type": "uint256"
        }
      ],
      "name": "startAuction",
      "outputs": [],
      "stateMutability": "nonpayable",
      "type": "function"
    },
    {
      "inputs": [],
      "name": "startingBid",
      "outputs": [
        {
          "internalType": "uint256",
          "name": "",
          "type": "uint256"
        }
      ],
      "stateMutability": "view",
      "type": "function"
    },
    {
      "inputs": [],
      "name": "transferHighestBid",
      "outputs": [],
      "stateMutability": "nonpayable",
      "type": "function"
    }
  ],
  "bytecode": "0x60806040523480156200001157600080fd5b506040516200206838038062002068833981810160405281019062000037919062000115565b806000806101000a81548173ffffffffffffffffffffffffffffffffffffffff021916908373ffffffffffffffffffffffffffffffffffffffff1602179055506000600660006101000a81548160ff0219169083151502179055506000600660016101000a81548160ff02191690831515021790555060006002819055506000600360006101000a81548173ffffffffffffffffffffffffffffffffffffffff021916908373ffffffffffffffffffffffffffffffffffffffff160217905550506200018f565b6000815190506200010f8162000175565b92915050565b6000602082840312156200012857600080fd5b60006200013884828501620000fe565b91505092915050565b60006200014e8262000155565b9050919050565b600073ffffffffffffffffffffffffffffffffffffffff82169050919050565b620001808162000141565b81146200018c57600080fd5b50565b611ec9806200019f6000396000f3fe6080604052600436106100dd5760003560e01c806391f901571161007f578063d57bde7911610059578063d57bde7914610264578063ecfc7ecc1461028f578063ee2679bc14610299578063fe67a54b146102c4576100dd565b806391f90157146101e3578063b9fdd5691461020e578063d56d229d14610239576100dd565b80637d350453116100bb5780637d3504531461014d5780637e83057414610164578063864333741461018f57806391e078bb146101ba576100dd565b806301ff5e3c146100e25780634b449cba1461010b5780634db838e014610136575b600080fd5b3480156100ee57600080fd5b506101096004803603810190610104919061119b565b6102db565b005b34801561011757600080fd5b50610120610567565b60405161012d919061191a565b60405180910390f35b34801561014257600080fd5b5061014b61056d565b005b34801561015957600080fd5b50610162610810565b005b34801561017057600080fd5b506101796108d7565b604051610186919061191a565b60405180910390f35b34801561019b57600080fd5b506101a46108dd565b6040516101b1919061163f565b60405180910390f35b3480156101c657600080fd5b506101e160048036038101906101dc91906111d7565b6108f0565b005b3480156101ef57600080fd5b506101f8610b59565b604051610205919061158d565b60405180910390f35b34801561021a57600080fd5b50610223610b7f565b604051610230919061191a565b60405180910390f35b34801561024557600080fd5b5061024e610b85565b60405161025b919061158d565b60405180910390f35b34801561027057600080fd5b50610279610ba9565b604051610286919061191a565b60405180910390f35b610297610baf565b005b3480156102a557600080fd5b506102ae610e29565b6040516102bb919061163f565b60405180910390f35b3480156102d057600080fd5b506102d9610e3c565b005b7f7cdb51e9dbbc205231228146c3246e7f914aa6d4a33170e43ecc8e3593481d1a6040516103089061185a565b60405180910390a160008060009054906101000a900473ffffffffffffffffffffffffffffffffffffffff1673ffffffffffffffffffffffffffffffffffffffff16636352211e836040518263ffffffff1660e01b815260040161036c919061191a565b60206040518083038186803b15801561038457600080fd5b505afa158015610398573d6000803e3d6000fd5b505050506040513d601f19601f820116820180604052508101906103bc9190611172565b9050600073ffffffffffffffffffffffffffffffffffffffff168373ffffffffffffffffffffffffffffffffffffffff16141561042e576040517f08c379a0000000000000000000000000000000000000000000000000000000008152600401610425906117ba565b60405180910390fd5b600073ffffffffffffffffffffffffffffffffffffffff168173ffffffffffffffffffffffffffffffffffffffff16141561049e576040517f08c379a00000000000000000000000000000000000000000000000000000000081526004016104959061177a565b60405180910390fd5b60008054906101000a900473ffffffffffffffffffffffffffffffffffffffff1673ffffffffffffffffffffffffffffffffffffffff166342842e0e8285856040518463ffffffff1660e01b81526004016104fb939291906115a8565b600060405180830381600087803b15801561051557600080fd5b505af1158015610529573d6000803e3d6000fd5b505050507f7cdb51e9dbbc205231228146c3246e7f914aa6d4a33170e43ecc8e3593481d1a60405161055a906116fa565b60405180910390a1505050565b60045481565b60008060009054906101000a900473ffffffffffffffffffffffffffffffffffffffff1673ffffffffffffffffffffffffffffffffffffffff16636352211e6001546040518263ffffffff1660e01b81526004016105cb919061191a565b60206040518083038186803b1580156105e357600080fd5b505afa1580156105f7573d6000803e3d6000fd5b505050506040513d601f19601f8201168201806040525081019061061b9190611172565b9050600060025411610662576040517f08c379a00000000000000000000000000000000000000000000000000000000081526004016106599061167a565b60405180910390fd5b600073ffffffffffffffffffffffffffffffffffffffff16600360009054906101000a900473ffffffffffffffffffffffffffffffffffffffff1673ffffffffffffffffffffffffffffffffffffffff1614156106f4576040517f08c379a00000000000000000000000000000000000000000000000000000000081526004016106eb9061183a565b60405180910390fd5b7f7cdb51e9dbbc205231228146c3246e7f914aa6d4a33170e43ecc8e3593481d1a604051610721906116da565b60405180910390a160008173ffffffffffffffffffffffffffffffffffffffff1660025460405161075190611578565b60006040518083038185875af1925050503d806000811461078e576040519150601f19603f3d011682016040523d82523d6000602084013e610793565b606091505b50509050806107d7576040517f08c379a00000000000000000000000000000000000000000000000000000000081526004016107ce9061187a565b60405180910390fd5b7f7cdb51e9dbbc205231228146c3246e7f914aa6d4a33170e43ecc8e3593481d1a6040516108049061175a565b60405180910390a15050565b6000600660016101000a81548160ff0219169083151502179055506000600660006101000a81548160ff021916908315150217905550600060058190555060006002819055506000600360006101000a81548173ffffffffffffffffffffffffffffffffffffffff021916908373ffffffffffffffffffffffffffffffffffffffff16021790555060006004819055507f7cdb51e9dbbc205231228146c3246e7f914aa6d4a33170e43ecc8e3593481d1a6040516108cd9061165a565b60405180910390a1565b60015481565b600660009054906101000a900460ff1681565b600660019054906101000a900460ff1615610940576040517f08c379a00000000000000000000000000000000000000000000000000000000081526004016109379061179a565b60405180910390fd5b60008060009054906101000a900473ffffffffffffffffffffffffffffffffffffffff1673ffffffffffffffffffffffffffffffffffffffff16636352211e836040518263ffffffff1660e01b815260040161099c919061191a565b60206040518083038186803b1580156109b457600080fd5b505afa1580156109c8573d6000803e3d6000fd5b505050506040513d601f19601f820116820180604052508101906109ec9190611172565b90508073ffffffffffffffffffffffffffffffffffffffff163373ffffffffffffffffffffffffffffffffffffffff1614610a5c576040517f08c379a0000000000000000000000000000000000000000000000000000000008152600401610a53906118ba565b60405180910390fd5b816001819055506001600660016101000a81548160ff0219169083151502179055508242610a8a9190611951565b6004819055508360058190555060006002819055506000600360006101000a81548173ffffffffffffffffffffffffffffffffffffffff021916908373ffffffffffffffffffffffffffffffffffffffff1602179055507f92db7303de5c78e58e4570f0b4acf392e3dac09394e96c4fa62b323b6337ee653385600454604051610b1693929190611608565b60405180910390a17f7cdb51e9dbbc205231228146c3246e7f914aa6d4a33170e43ecc8e3593481d1a604051610b4b9061169a565b60405180910390a150505050565b600360009054906101000a900473ffffffffffffffffffffffffffffffffffffffff1681565b60055481565b60008054906101000a900473ffffffffffffffffffffffffffffffffffffffff1681565b60025481565b6004544210610bf3576040517f08c379a0000000000000000000000000000000000000000000000000000000008152600401610bea9061173a565b60405180910390fd5b600554341015610c38576040517f08c379a0000000000000000000000000000000000000000000000000000000008152600401610c2f906118fa565b60405180910390fd5b6002543411610c7c576040517f08c379a0000000000000000000000000000000000000000000000000000000008152600401610c73906117fa565b60405180910390fd5b600073ffffffffffffffffffffffffffffffffffffffff16600360009054906101000a900473ffffffffffffffffffffffffffffffffffffffff1673ffffffffffffffffffffffffffffffffffffffff1614610d71576000600360009054906101000a900473ffffffffffffffffffffffffffffffffffffffff1673ffffffffffffffffffffffffffffffffffffffff166108fc6002549081150290604051600060405180830381858888f19350505050905080610d6f576040517f08c379a0000000000000000000000000000000000000000000000000000000008152600401610d66906117da565b60405180910390fd5b505b3460028190555033600360006101000a81548173ffffffffffffffffffffffffffffffffffffffff021916908373ffffffffffffffffffffffffffffffffffffffff1602179055507fdd0b6c6a77960e2066c96171b4d7ac9e8b4c184011f38544afa36a5bb63ec59f3334604051610dea9291906115df565b60405180910390a17f7cdb51e9dbbc205231228146c3246e7f914aa6d4a33170e43ecc8e3593481d1a604051610e1f9061189a565b60405180910390a1565b600660019054906101000a900460ff1681565b600454421015610e81576040517f08c379a0000000000000000000000000000000000000000000000000000000008152600401610e789061171a565b60405180910390fd5b600660009054906101000a900460ff1615610ed1576040517f08c379a0000000000000000000000000000000000000000000000000000000008152600401610ec8906116ba565b60405180910390fd5b6001600660006101000a81548160ff0219169083151502179055506000600660016101000a81548160ff0219169083151502179055507f7cdb51e9dbbc205231228146c3246e7f914aa6d4a33170e43ecc8e3593481d1a604051610f349061181a565b60405180910390a13073ffffffffffffffffffffffffffffffffffffffff166301ff5e3c600360009054906101000a900473ffffffffffffffffffffffffffffffffffffffff166001546040518363ffffffff1660e01b8152600401610f9b9291906115df565b600060405180830381600087803b158015610fb557600080fd5b505af1158015610fc9573d6000803e3d6000fd5b505050507f7cdb51e9dbbc205231228146c3246e7f914aa6d4a33170e43ecc8e3593481d1a604051610ffa906116fa565b60405180910390a17f7cdb51e9dbbc205231228146c3246e7f914aa6d4a33170e43ecc8e3593481d1a60405161102f906118da565b60405180910390a13073ffffffffffffffffffffffffffffffffffffffff16634db838e06040518163ffffffff1660e01b8152600401600060405180830381600087803b15801561107f57600080fd5b505af1158015611093573d6000803e3d6000fd5b505050507f7cdb51e9dbbc205231228146c3246e7f914aa6d4a33170e43ecc8e3593481d1a6040516110c49061175a565b60405180910390a17fdaec4582d5d9595688c8c98545fdd1c696d41c6aeaeb636737e84ed2f5c00eda600360009054906101000a900473ffffffffffffffffffffffffffffffffffffffff166002546040516111219291906115df565b60405180910390a1611131610810565b565b60008135905061114281611e65565b92915050565b60008151905061115781611e65565b92915050565b60008135905061116c81611e7c565b92915050565b60006020828403121561118457600080fd5b600061119284828501611148565b91505092915050565b600080604083850312156111ae57600080fd5b60006111bc85828601611133565b92505060206111cd8582860161115d565b9150509250929050565b6000806000606084860312156111ec57600080fd5b60006111fa8682870161115d565b935050602061120b8682870161115d565b925050604061121c8682870161115d565b9150509250925092565b61122f816119a7565b82525050565b61123e816119b9565b82525050565b6000611251600d83611940565b915061125c82611a1e565b602082019050919050565b6000611274601483611940565b915061127f82611a47565b602082019050919050565b6000611297601c83611940565b91506112a282611a70565b602082019050919050565b60006112ba601583611940565b91506112c582611a99565b602082019050919050565b60006112dd602983611940565b91506112e882611ac2565b604082019050919050565b6000611300601c83611940565b915061130b82611b11565b602082019050919050565b6000611323601883611940565b915061132e82611b3a565b602082019050919050565b6000611346601183611940565b915061135182611b63565b602082019050919050565b6000611369601b83611940565b915061137482611b8c565b602082019050919050565b600061138c601983611940565b915061139782611bb5565b602082019050919050565b60006113af601783611940565b91506113ba82611bde565b602082019050919050565b60006113d2601983611940565b91506113dd82611c07565b602082019050919050565b60006113f5600d83611940565b915061140082611c30565b602082019050919050565b6000611418602f83611940565b915061142382611c59565b604082019050919050565b600061143b601883611940565b915061144682611ca8565b602082019050919050565b600061145e601783611940565b915061146982611cd1565b602082019050919050565b6000611481602f83611940565b915061148c82611cfa565b604082019050919050565b60006114a4601783611940565b91506114af82611d49565b602082019050919050565b60006114c7601783611940565b91506114d282611d72565b602082019050919050565b60006114ea602983611940565b91506114f582611d9b565b604082019050919050565b600061150d600083611935565b915061151882611dea565b600082019050919050565b6000611530601c83611940565b915061153b82611ded565b602082019050919050565b6000611553602583611940565b915061155e82611e16565b604082019050919050565b611572816119e5565b82525050565b600061158382611500565b9150819050919050565b60006020820190506115a26000830184611226565b92915050565b60006060820190506115bd6000830186611226565b6115ca6020830185611226565b6115d76040830184611569565b949350505050565b60006040820190506115f46000830185611226565b6116016020830184611569565b9392505050565b600060608201905061161d6000830186611226565b61162a6020830185611569565b6116376040830184611569565b949350505050565b60006020820190506116546000830184611235565b92915050565b6000602082019050818103600083015261167381611244565b9050919050565b6000602082019050818103600083015261169381611267565b9050919050565b600060208201905081810360008301526116b38161128a565b9050919050565b600060208201905081810360008301526116d3816112ad565b9050919050565b600060208201905081810360008301526116f3816112d0565b9050919050565b60006020820190508181036000830152611713816112f3565b9050919050565b6000602082019050818103600083015261173381611316565b9050919050565b6000602082019050818103600083015261175381611339565b9050919050565b600060208201905081810360008301526117738161135c565b9050919050565b600060208201905081810360008301526117938161137f565b9050919050565b600060208201905081810360008301526117b3816113a2565b9050919050565b600060208201905081810360008301526117d3816113c5565b9050919050565b600060208201905081810360008301526117f3816113e8565b9050919050565b600060208201905081810360008301526118138161140b565b9050919050565b600060208201905081810360008301526118338161142e565b9050919050565b6000602082019050818103600083015261185381611451565b9050919050565b6000602082019050818103600083015261187381611474565b9050919050565b6000602082019050818103600083015261189381611497565b9050919050565b600060208201905081810360008301526118b3816114ba565b9050919050565b600060208201905081810360008301526118d3816114dd565b9050919050565b600060208201905081810360008301526118f381611523565b9050919050565b6000602082019050818103600083015261191381611546565b9050919050565b600060208201905061192f6000830184611569565b92915050565b600081905092915050565b600082825260208201905092915050565b600061195c826119e5565b9150611967836119e5565b9250827fffffffffffffffffffffffffffffffffffffffffffffffffffffffffffffffff0382111561199c5761199b6119ef565b5b828201905092915050565b60006119b2826119c5565b9050919050565b60008115159050919050565b600073ffffffffffffffffffffffffffffffffffffffff82169050919050565b6000819050919050565b7f4e487b7100000000000000000000000000000000000000000000000000000000600052601160045260246000fd5b7f41756374696f6e20726573657400000000000000000000000000000000000000600082015250565b7f4e6f2066756e647320746f207472616e73666572000000000000000000000000600082015250565b7f41756374696f6e2073746172746564207375636365737366756c6c7900000000600082015250565b7f41756374696f6e20616c726561647920656e6465640000000000000000000000600082015250565b7f417474656d7074696e6720746f207472616e736665722066756e647320746f2060008201527f73656c6c65722e2e2e0000000000000000000000000000000000000000000000602082015250565b7f4e4654207472616e73666572726564207375636365737366756c6c7900000000600082015250565b7f41756374696f6e206973207374696c6c206f6e676f696e670000000000000000600082015250565b7f41756374696f6e2068617320656e646564000000000000000000000000000000600082015250565b7f5061796d656e74207472616e73666572207375636365737366756c0000000000600082015250565b7f53656c6c6572206164647265737320697320696e76616c696400000000000000600082015250565b7f41756374696f6e20616c72656164792073746172746564000000000000000000600082015250565b7f496e76616c696420726563697069656e74206164647265737300000000000000600082015250565b7f526566756e64206661696c656400000000000000000000000000000000000000600082015250565b7f426964206d75737420626520686967686572207468616e20746865206375727260008201527f656e742068696768657374206269640000000000000000000000000000000000602082015250565b7f5374617274696e67204e4654207472616e736665722e2e2e0000000000000000600082015250565b7f4e6f2076616c6964206869676865737420626964646572000000000000000000600082015250565b7f566572696679696e67207468652073656c6c657220616e64207265636970696560008201527f6e74206164647265737365732e2e2e0000000000000000000000000000000000602082015250565b7f5061796d656e74207472616e73666572206661696c6564000000000000000000600082015250565b7f42696420706c61636564207375636365737366756c6c79000000000000000000600082015250565b7f596f75206d757374206f776e20746865204e465420746f20737461727420746860008201527f652061756374696f6e0000000000000000000000000000000000000000000000602082015250565b50565b7f5374617274696e67207061796d656e74207472616e736665722e2e2e00000000600082015250565b7f426964206d757374206265206174206c6561737420746865207374617274696e60008201527f6720626964000000000000000000000000000000000000000000000000000000602082015250565b611e6e816119a7565b8114611e7957600080fd5b50565b611e85816119e5565b8114611e9057600080fd5b5056fea2646970667358221220468e69700594be8427179480af1988bf27673e03d610edb6b5b885fcb84e4fe264736f6c63430008040033",
  "linkReferences": {},
  "deployedLinkReferences": {}
}